{
  "address": "0xDEB906ccD3C84F2C972B28d166D6dAed33a9FC53",
  "abi": [
    {
      "inputs": [],
      "name": "get_images_dir_cid",
      "outputs": [
        {
          "internalType": "string",
          "name": "",
          "type": "string"
        }
      ],
      "stateMutability": "view",
      "type": "function"
    }
  ],
  "transactionHash": "0xc4603ef8d082694f9a828c1544dc2e0e9b8ab300e5c82a4e36fe89fb6b0056ad",
  "args": [],
  "numDeployments": 1,
  "solcInputHash": "2a5b8afb43e9b7ba0c28935317ad342c",
  "bytecode": "0x608060405234801561001057600080fd5b5061011b806100206000396000f3fe6080604052348015600f57600080fd5b506004361060285760003560e01c80637d5c32e414602d575b600080fd5b60336047565b604051603e91906067565b60405180910390f35b60606040518060600160405280602e81526020016100b8602e9139905090565b6000602080835283518082850152825b818110156091578581018301518582016040015282016077565b8181111560a15783604083870101525b50601f01601f191692909201604001939250505056fe516d5271635479504c7532504366417751455a4e3132316d79574559706235453575644b4c79674259595556564ca264697066735822122039ceae34e164ad06ab801c0831fdedd2815d19487b45b0b1115f2790f1200d9e64736f6c63430008040033",
  "devdoc": {
    "kind": "dev",
    "methods": {},
    "version": 1
  },
  "userdoc": {
    "kind": "user",
    "methods": {},
    "version": 1
  },
  "storageLayout": {
    "storage": [],
    "types": null
  }
}