{
  "_format": "hh-sol-artifact-1",
  "contractName": "LingSwapToken",
  "sourceName": "contracts/LingoSwapToken.sol",
  "abi": [
    {
      "inputs": [],
      "stateMutability": "nonpayable",
      "type": "constructor"
    },
    {
      "anonymous": false,
      "inputs": [
        {
          "indexed": true,
          "internalType": "address",
          "name": "owner",
          "type": "address"
        },
        {
          "indexed": true,
          "internalType": "address",
          "name": "spender",
          "type": "address"
        },
        {
          "indexed": false,
          "internalType": "uint256",
          "name": "value",
          "type": "uint256"
        }
      ],
      "name": "Approval",
      "type": "event"
    },
    {
      "anonymous": false,
      "inputs": [
        {
          "indexed": true,
          "internalType": "address",
          "name": "delegator",
          "type": "address"
        },
        {
          "indexed": true,
          "internalType": "address",
          "name": "fromDelegate",
          "type": "address"
        },
        {
          "indexed": true,
          "internalType": "address",
          "name": "toDelegate",
          "type": "address"
        }
      ],
      "name": "DelegateChanged",
      "type": "event"
    },
    {
      "anonymous": false,
      "inputs": [
        {
          "indexed": true,
          "internalType": "address",
          "name": "delegate",
          "type": "address"
        },
        {
          "indexed": false,
          "internalType": "uint256",
          "name": "previousBalance",
          "type": "uint256"
        },
        {
          "indexed": false,
          "internalType": "uint256",
          "name": "newBalance",
          "type": "uint256"
        }
      ],
      "name": "DelegateVotesChanged",
      "type": "event"
    },
    {
      "anonymous": false,
      "inputs": [
        {
          "indexed": true,
          "internalType": "address",
          "name": "previousOwner",
          "type": "address"
        },
        {
          "indexed": true,
          "internalType": "address",
          "name": "newOwner",
          "type": "address"
        }
      ],
      "name": "OwnershipTransferred",
      "type": "event"
    },
    {
      "anonymous": false,
      "inputs": [
        {
          "indexed": false,
          "internalType": "address",
          "name": "account",
          "type": "address"
        }
      ],
      "name": "Paused",
      "type": "event"
    },
    {
      "anonymous": false,
      "inputs": [
        {
          "indexed": true,
          "internalType": "address",
          "name": "from",
          "type": "address"
        },
        {
          "indexed": true,
          "internalType": "address",
          "name": "to",
          "type": "address"
        },
        {
          "indexed": false,
          "internalType": "uint256",
          "name": "value",
          "type": "uint256"
        }
      ],
      "name": "Transfer",
      "type": "event"
    },
    {
      "anonymous": false,
      "inputs": [
        {
          "indexed": false,
          "internalType": "address",
          "name": "account",
          "type": "address"
        }
      ],
      "name": "Unpaused",
      "type": "event"
    },
    {
      "inputs": [],
      "name": "DOMAIN_SEPARATOR",
      "outputs": [
        {
          "internalType": "bytes32",
          "name": "",
          "type": "bytes32"
        }
      ],
      "stateMutability": "view",
      "type": "function"
    },
    {
      "inputs": [
        {
          "internalType": "address",
          "name": "owner",
          "type": "address"
        },
        {
          "internalType": "address",
          "name": "spender",
          "type": "address"
        }
      ],
      "name": "allowance",
      "outputs": [
        {
          "internalType": "uint256",
          "name": "",
          "type": "uint256"
        }
      ],
      "stateMutability": "view",
      "type": "function"
    },
    {
      "inputs": [
        {
          "internalType": "address",
          "name": "spender",
          "type": "address"
        },
        {
          "internalType": "uint256",
          "name": "amount",
          "type": "uint256"
        }
      ],
      "name": "approve",
      "outputs": [
        {
          "internalType": "bool",
          "name": "",
          "type": "bool"
        }
      ],
      "stateMutability": "nonpayable",
      "type": "function"
    },
    {
      "inputs": [
        {
          "internalType": "address",
          "name": "account",
          "type": "address"
        }
      ],
      "name": "balanceOf",
      "outputs": [
        {
          "internalType": "uint256",
          "name": "",
          "type": "uint256"
        }
      ],
      "stateMutability": "view",
      "type": "function"
    },
    {
      "inputs": [
        {
          "internalType": "uint256",
          "name": "amount",
          "type": "uint256"
        }
      ],
      "name": "burn",
      "outputs": [],
      "stateMutability": "nonpayable",
      "type": "function"
    },
    {
      "inputs": [
        {
          "internalType": "address",
          "name": "account",
          "type": "address"
        },
        {
          "internalType": "uint256",
          "name": "amount",
          "type": "uint256"
        }
      ],
      "name": "burnFrom",
      "outputs": [],
      "stateMutability": "nonpayable",
      "type": "function"
    },
    {
      "inputs": [
        {
          "internalType": "address",
          "name": "account",
          "type": "address"
        },
        {
          "internalType": "uint32",
          "name": "pos",
          "type": "uint32"
        }
      ],
      "name": "checkpoints",
      "outputs": [
        {
          "components": [
            {
              "internalType": "uint32",
              "name": "fromBlock",
              "type": "uint32"
            },
            {
              "internalType": "uint224",
              "name": "votes",
              "type": "uint224"
            }
          ],
          "internalType": "struct ERC20VotesUpgradeable.Checkpoint",
          "name": "",
          "type": "tuple"
        }
      ],
      "stateMutability": "view",
      "type": "function"
    },
    {
      "inputs": [],
      "name": "decimals",
      "outputs": [
        {
          "internalType": "uint8",
          "name": "",
          "type": "uint8"
        }
      ],
      "stateMutability": "view",
      "type": "function"
    },
    {
      "inputs": [
        {
          "internalType": "address",
          "name": "spender",
          "type": "address"
        },
        {
          "internalType": "uint256",
          "name": "subtractedValue",
          "type": "uint256"
        }
      ],
      "name": "decreaseAllowance",
      "outputs": [
        {
          "internalType": "bool",
          "name": "",
          "type": "bool"
        }
      ],
      "stateMutability": "nonpayable",
      "type": "function"
    },
    {
      "inputs": [
        {
          "internalType": "address",
          "name": "delegatee",
          "type": "address"
        }
      ],
      "name": "delegate",
      "outputs": [],
      "stateMutability": "nonpayable",
      "type": "function"
    },
    {
      "inputs": [
        {
          "internalType": "address",
          "name": "delegatee",
          "type": "address"
        },
        {
          "internalType": "uint256",
          "name": "nonce",
          "type": "uint256"
        },
        {
          "internalType": "uint256",
          "name": "expiry",
          "type": "uint256"
        },
        {
          "internalType": "uint8",
          "name": "v",
          "type": "uint8"
        },
        {
          "internalType": "bytes32",
          "name": "r",
          "type": "bytes32"
        },
        {
          "internalType": "bytes32",
          "name": "s",
          "type": "bytes32"
        }
      ],
      "name": "delegateBySig",
      "outputs": [],
      "stateMutability": "nonpayable",
      "type": "function"
    },
    {
      "inputs": [
        {
          "internalType": "address",
          "name": "account",
          "type": "address"
        }
      ],
      "name": "delegates",
      "outputs": [
        {
          "internalType": "address",
          "name": "",
          "type": "address"
        }
      ],
      "stateMutability": "view",
      "type": "function"
    },
    {
      "inputs": [
        {
          "internalType": "uint256",
          "name": "blockNumber",
          "type": "uint256"
        }
      ],
      "name": "getPastTotalSupply",
      "outputs": [
        {
          "internalType": "uint256",
          "name": "",
          "type": "uint256"
        }
      ],
      "stateMutability": "view",
      "type": "function"
    },
    {
      "inputs": [
        {
          "internalType": "address",
          "name": "account",
          "type": "address"
        },
        {
          "internalType": "uint256",
          "name": "blockNumber",
          "type": "uint256"
        }
      ],
      "name": "getPastVotes",
      "outputs": [
        {
          "internalType": "uint256",
          "name": "",
          "type": "uint256"
        }
      ],
      "stateMutability": "view",
      "type": "function"
    },
    {
      "inputs": [
        {
          "internalType": "address",
          "name": "account",
          "type": "address"
        }
      ],
      "name": "getVotes",
      "outputs": [
        {
          "internalType": "uint256",
          "name": "",
          "type": "uint256"
        }
      ],
      "stateMutability": "view",
      "type": "function"
    },
    {
      "inputs": [
        {
          "internalType": "address",
          "name": "spender",
          "type": "address"
        },
        {
          "internalType": "uint256",
          "name": "addedValue",
          "type": "uint256"
        }
      ],
      "name": "increaseAllowance",
      "outputs": [
        {
          "internalType": "bool",
          "name": "",
          "type": "bool"
        }
      ],
      "stateMutability": "nonpayable",
      "type": "function"
    },
    {
      "inputs": [],
      "name": "initialize",
      "outputs": [],
      "stateMutability": "nonpayable",
      "type": "function"
    },
    {
      "inputs": [
        {
          "internalType": "address",
          "name": "to",
          "type": "address"
        },
        {
          "internalType": "uint256",
          "name": "amount",
          "type": "uint256"
        }
      ],
      "name": "mint",
      "outputs": [],
      "stateMutability": "nonpayable",
      "type": "function"
    },
    {
      "inputs": [],
      "name": "name",
      "outputs": [
        {
          "internalType": "string",
          "name": "",
          "type": "string"
        }
      ],
      "stateMutability": "view",
      "type": "function"
    },
    {
      "inputs": [
        {
          "internalType": "address",
          "name": "owner",
          "type": "address"
        }
      ],
      "name": "nonces",
      "outputs": [
        {
          "internalType": "uint256",
          "name": "",
          "type": "uint256"
        }
      ],
      "stateMutability": "view",
      "type": "function"
    },
    {
      "inputs": [
        {
          "internalType": "address",
          "name": "account",
          "type": "address"
        }
      ],
      "name": "numCheckpoints",
      "outputs": [
        {
          "internalType": "uint32",
          "name": "",
          "type": "uint32"
        }
      ],
      "stateMutability": "view",
      "type": "function"
    },
    {
      "inputs": [],
      "name": "owner",
      "outputs": [
        {
          "internalType": "address",
          "name": "",
          "type": "address"
        }
      ],
      "stateMutability": "view",
      "type": "function"
    },
    {
      "inputs": [],
      "name": "pause",
      "outputs": [],
      "stateMutability": "nonpayable",
      "type": "function"
    },
    {
      "inputs": [],
      "name": "paused",
      "outputs": [
        {
          "internalType": "bool",
          "name": "",
          "type": "bool"
        }
      ],
      "stateMutability": "view",
      "type": "function"
    },
    {
      "inputs": [
        {
          "internalType": "address",
          "name": "owner",
          "type": "address"
        },
        {
          "internalType": "address",
          "name": "spender",
          "type": "address"
        },
        {
          "internalType": "uint256",
          "name": "value",
          "type": "uint256"
        },
        {
          "internalType": "uint256",
          "name": "deadline",
          "type": "uint256"
        },
        {
          "internalType": "uint8",
          "name": "v",
          "type": "uint8"
        },
        {
          "internalType": "bytes32",
          "name": "r",
          "type": "bytes32"
        },
        {
          "internalType": "bytes32",
          "name": "s",
          "type": "bytes32"
        }
      ],
      "name": "permit",
      "outputs": [],
      "stateMutability": "nonpayable",
      "type": "function"
    },
    {
      "inputs": [],
      "name": "renounceOwnership",
      "outputs": [],
      "stateMutability": "nonpayable",
      "type": "function"
    },
    {
      "inputs": [],
      "name": "symbol",
      "outputs": [
        {
          "internalType": "string",
          "name": "",
          "type": "string"
        }
      ],
      "stateMutability": "view",
      "type": "function"
    },
    {
      "inputs": [],
      "name": "totalSupply",
      "outputs": [
        {
          "internalType": "uint256",
          "name": "",
          "type": "uint256"
        }
      ],
      "stateMutability": "view",
      "type": "function"
    },
    {
      "inputs": [
        {
          "internalType": "address",
          "name": "recipient",
          "type": "address"
        },
        {
          "internalType": "uint256",
          "name": "amount",
          "type": "uint256"
        }
      ],
      "name": "transfer",
      "outputs": [
        {
          "internalType": "bool",
          "name": "",
          "type": "bool"
        }
      ],
      "stateMutability": "nonpayable",
      "type": "function"
    },
    {
      "inputs": [
        {
          "internalType": "address",
          "name": "sender",
          "type": "address"
        },
        {
          "internalType": "address",
          "name": "recipient",
          "type": "address"
        },
        {
          "internalType": "uint256",
          "name": "amount",
          "type": "uint256"
        }
      ],
      "name": "transferFrom",
      "outputs": [
        {
          "internalType": "bool",
          "name": "",
          "type": "bool"
        }
      ],
      "stateMutability": "nonpayable",
      "type": "function"
    },
    {
      "inputs": [
        {
          "internalType": "address",
          "name": "newOwner",
          "type": "address"
        }
      ],
      "name": "transferOwnership",
      "outputs": [],
      "stateMutability": "nonpayable",
      "type": "function"
    },
    {
      "inputs": [],
      "name": "unpause",
      "outputs": [],
      "stateMutability": "nonpayable",
      "type": "function"
    }
  ],
  "bytecode": "0x60806040523480156200001157600080fd5b50600054610100900460ff166200002f5760005460ff161562000039565b62000039620000de565b620000a15760405162461bcd60e51b815260206004820152602e60248201527f496e697469616c697a61626c653a20636f6e747261637420697320616c72656160448201526d191e481a5b9a5d1a585b1a5e995960921b606482015260840160405180910390fd5b600054610100900460ff16158015620000c4576000805461ffff19166101011790555b8015620000d7576000805461ff00191690555b5062000102565b6000620000f630620000fc60201b62000f5a1760201c565b15905090565b3b151590565b61287080620001126000396000f3fe608060405234801561001057600080fd5b50600436106101f05760003560e01c8063715018a61161010f5780639ab24eb0116100a2578063d505accf11610071578063d505accf14610432578063dd62ed3e14610445578063f1127ed81461047e578063f2fde38b146104bb57600080fd5b80639ab24eb0146103e6578063a457c2d7146103f9578063a9059cbb1461040c578063c3cda5201461041f57600080fd5b80638456cb59116100de5780638456cb59146103b25780638da5cb5b146103ba5780638e539e8c146103cb57806395d89b41146103de57600080fd5b8063715018a61461037c57806379cc6790146103845780637ecebe00146103975780638129fc1c146103aa57600080fd5b80633f4ba83a116101875780635c19a95c116101565780635c19a95c1461030d5780635c975abb146103205780636fcfff451461032b57806370a082311461035357600080fd5b80633f4ba83a1461029857806340c10f19146102a257806342966c68146102b5578063587cde1e146102c857600080fd5b8063313ce567116101c3578063313ce5671461025b5780633644e5151461026a57806339509351146102725780633a46b1a81461028557600080fd5b806306fdde03146101f5578063095ea7b31461021357806318160ddd1461023657806323b872dd14610248575b600080fd5b6101fd6104ce565b60405161020a91906125c0565b60405180910390f35b6102266102213660046124ea565b610560565b604051901515815260200161020a565b6035545b60405190815260200161020a565b610226610256366004612446565b610577565b6040516012815260200161020a565b61023a610626565b6102266102803660046124ea565b610635565b61023a6102933660046124ea565b610671565b6102a06106ec565b005b6102a06102b03660046124ea565b610720565b6102a06102c33660046125a8565b610758565b6102f56102d63660046123fa565b6001600160a01b03908116600090815261016260205260409020541690565b6040516001600160a01b03909116815260200161020a565b6102a061031b3660046123fa565b610765565b60975460ff16610226565b61033e6103393660046123fa565b61076f565b60405163ffffffff909116815260200161020a565b61023a6103613660046123fa565b6001600160a01b031660009081526033602052604090205490565b6102a0610792565b6102a06103923660046124ea565b6107c6565b61023a6103a53660046123fa565b61084c565b6102a061086b565b6102a06109d7565b60c9546001600160a01b03166102f5565b61023a6103d93660046125a8565b610a09565b6101fd610a66565b61023a6103f43660046123fa565b610a75565b6102266104073660046124ea565b610b0c565b61022661041a3660046124ea565b610ba5565b6102a061042d366004612513565b610bb2565b6102a0610440366004612481565b610ce8565b61023a610453366004612414565b6001600160a01b03918216600090815260346020908152604080832093909416825291909152205490565b61049161048c36600461256a565b610e2f565b60408051825163ffffffff1681526020928301516001600160e01b0316928101929092520161020a565b6102a06104c93660046123fa565b610ec2565b6060603680546104dd906127ef565b80601f0160208091040260200160405190810160405280929190818152602001828054610509906127ef565b80156105565780601f1061052b57610100808354040283529160200191610556565b820191906000526020600020905b81548152906001019060200180831161053957829003601f168201915b5050505050905090565b600061056d338484610f60565b5060015b92915050565b6000610584848484611084565b6001600160a01b03841660009081526034602090815260408083203384529091529020548281101561060e5760405162461bcd60e51b815260206004820152602860248201527f45524332303a207472616e7366657220616d6f756e74206578636565647320616044820152676c6c6f77616e636560c01b60648201526084015b60405180910390fd5b61061b8533858403610f60565b506001949350505050565b6000610630611269565b905090565b3360008181526034602090815260408083206001600160a01b0387168452909152812054909161056d91859061066c908690612693565b610f60565b60004382106106c25760405162461bcd60e51b815260206004820152601f60248201527f4552433230566f7465733a20626c6f636b206e6f7420796574206d696e6564006044820152606401610605565b6001600160a01b0383166000908152610163602052604090206106e590836112e4565b9392505050565b60c9546001600160a01b031633146107165760405162461bcd60e51b815260040161060590612613565b61071e6113bd565b565b60c9546001600160a01b0316331461074a5760405162461bcd60e51b815260040161060590612613565b6107548282611450565b5050565b610762338261145a565b50565b6107623382611464565b6001600160a01b03811660009081526101636020526040812054610571906114df565b60c9546001600160a01b031633146107bc5760405162461bcd60e51b815260040161060590612613565b61071e6000611548565b60006107d28333610453565b9050818110156108305760405162461bcd60e51b8152602060048201526024808201527f45524332303a206275726e20616d6f756e74206578636565647320616c6c6f77604482015263616e636560e01b6064820152608401610605565b61083d8333848403610f60565b610847838361145a565b505050565b6001600160a01b038116600090815261012f6020526040812054610571565b600054610100900460ff166108865760005460ff161561088a565b303b155b6108ed5760405162461bcd60e51b815260206004820152602e60248201527f496e697469616c697a61626c653a20636f6e747261637420697320616c72656160448201526d191e481a5b9a5d1a585b1a5e995960921b6064820152608401610605565b600054610100900460ff1615801561090f576000805461ffff19166101011790555b61095b6040518060400160405280600d81526020016c2634b733a9bbb0b82a37b5b2b760991b815250604051806040016040528060058152602001644c696e676f60d81b81525061159a565b6109636115d3565b61096b61160a565b610973611641565b6109a16040518060400160405280600d81526020016c2634b733a9bbb0b82a37b5b2b760991b815250611678565b6109c3336109b16012600a61270e565b6109be90629896806127b9565b611450565b8015610762576000805461ff001916905550565b60c9546001600160a01b03163314610a015760405162461bcd60e51b815260040161060590612613565b61071e6116d3565b6000438210610a5a5760405162461bcd60e51b815260206004820152601f60248201527f4552433230566f7465733a20626c6f636b206e6f7420796574206d696e6564006044820152606401610605565b610571610164836112e4565b6060603780546104dd906127ef565b6001600160a01b038116600090815261016360205260408120548015610af9576001600160a01b038316600090815261016360205260409020610ab96001836127d8565b81548110610ad757634e487b7160e01b600052603260045260246000fd5b60009182526020909120015464010000000090046001600160e01b0316610afc565b60005b6001600160e01b03169392505050565b3360009081526034602090815260408083206001600160a01b038616845290915281205482811015610b8e5760405162461bcd60e51b815260206004820152602560248201527f45524332303a2064656372656173656420616c6c6f77616e63652062656c6f77604482015264207a65726f60d81b6064820152608401610605565b610b9b3385858403610f60565b5060019392505050565b600061056d338484611084565b83421115610c025760405162461bcd60e51b815260206004820152601d60248201527f4552433230566f7465733a207369676e617475726520657870697265640000006044820152606401610605565b604080517fe48329057bfd03d55e49b547132e39cffd9c1820ad7b9d4c5307691425d15adf60208201526001600160a01b038816918101919091526060810186905260808101859052600090610c7c90610c749060a0016040516020818303038152906040528051906020012061174e565b85858561179c565b9050610c87816117c4565b8614610cd55760405162461bcd60e51b815260206004820152601960248201527f4552433230566f7465733a20696e76616c6964206e6f6e6365000000000000006044820152606401610605565b610cdf8188611464565b50505050505050565b83421115610d385760405162461bcd60e51b815260206004820152601d60248201527f45524332305065726d69743a206578706972656420646561646c696e650000006044820152606401610605565b600061013054888888610d4a8c6117c4565b6040805160208101969096526001600160a01b0394851690860152929091166060840152608083015260a082015260c0810186905260e0016040516020818303038152906040528051906020012090506000610da58261174e565b90506000610db58287878761179c565b9050896001600160a01b0316816001600160a01b031614610e185760405162461bcd60e51b815260206004820152601e60248201527f45524332305065726d69743a20696e76616c6964207369676e617475726500006044820152606401610605565b610e238a8a8a610f60565b50505050505050505050565b60408051808201909152600080825260208201526001600160a01b038316600090815261016360205260409020805463ffffffff8416908110610e8257634e487b7160e01b600052603260045260246000fd5b60009182526020918290206040805180820190915291015463ffffffff8116825264010000000090046001600160e01b0316918101919091529392505050565b60c9546001600160a01b03163314610eec5760405162461bcd60e51b815260040161060590612613565b6001600160a01b038116610f515760405162461bcd60e51b815260206004820152602660248201527f4f776e61626c653a206e6577206f776e657220697320746865207a65726f206160448201526564647265737360d01b6064820152608401610605565b61076281611548565b3b151590565b6001600160a01b038316610fc25760405162461bcd60e51b8152602060048201526024808201527f45524332303a20617070726f76652066726f6d20746865207a65726f206164646044820152637265737360e01b6064820152608401610605565b6001600160a01b0382166110235760405162461bcd60e51b815260206004820152602260248201527f45524332303a20617070726f766520746f20746865207a65726f206164647265604482015261737360f01b6064820152608401610605565b6001600160a01b0383811660008181526034602090815260408083209487168084529482529182902085905590518481527f8c5be1e5ebec7d5bd14f71427d1e84f3dd0314c0f7b2291e5b200ac8c7c3b925910160405180910390a3505050565b6001600160a01b0383166110e85760405162461bcd60e51b815260206004820152602560248201527f45524332303a207472616e736665722066726f6d20746865207a65726f206164604482015264647265737360d81b6064820152608401610605565b6001600160a01b03821661114a5760405162461bcd60e51b815260206004820152602360248201527f45524332303a207472616e7366657220746f20746865207a65726f206164647260448201526265737360e81b6064820152608401610605565b6111558383836117ed565b6001600160a01b038316600090815260336020526040902054818110156111cd5760405162461bcd60e51b815260206004820152602660248201527f45524332303a207472616e7366657220616d6f756e7420657863656564732062604482015265616c616e636560d01b6064820152608401610605565b6001600160a01b03808516600090815260336020526040808220858503905591851681529081208054849290611204908490612693565b92505081905550826001600160a01b0316846001600160a01b03167fddf252ad1be2c89b69c2b068fc378daa952ba7f163c4a11628f55a4df523b3ef8460405161125091815260200190565b60405180910390a3611263848484611833565b50505050565b60006106307f8b73c3c69bb8fe3d512ecc4cf759cc79239f7b179b0ffacaa9a75d522b39400f61129860fb5490565b60fc546040805160208101859052908101839052606081018290524660808201523060a082015260009060c0016040516020818303038152906040528051906020012090509392505050565b8154600090815b818110156113565760006112ff828461183e565b90508486828154811061132257634e487b7160e01b600052603260045260246000fd5b60009182526020909120015463ffffffff16111561134257809250611350565b61134d816001612693565b91505b506112eb565b81156113a857846113686001846127d8565b8154811061138657634e487b7160e01b600052603260045260246000fd5b60009182526020909120015464010000000090046001600160e01b03166113ab565b60005b6001600160e01b031695945050505050565b60975460ff166114065760405162461bcd60e51b815260206004820152601460248201527314185d5cd8589b194e881b9bdd081c185d5cd95960621b6044820152606401610605565b6097805460ff191690557f5db9ee0a495bf2e6ff9c91a7834c1ba4fdd244a5e8aa4e537bd38aeae4b073aa335b6040516001600160a01b03909116815260200160405180910390a1565b6107548282611859565b61075482826118e4565b6001600160a01b0382811660008181526101626020818152604080842080546033845282862054949093528787166001600160a01b03198416811790915590519190951694919391928592917f3134e8a2e6d97e929a7e54011ea5485d7d196dd5f0ba4d4ef95803e8e3fc257f9190a46112638284836118fd565b600063ffffffff8211156115445760405162461bcd60e51b815260206004820152602660248201527f53616665436173743a2076616c756520646f65736e27742066697420696e203360448201526532206269747360d01b6064820152608401610605565b5090565b60c980546001600160a01b038381166001600160a01b0319831681179093556040519116919082907f8be0079c531659141344cd1fd0a4f28419497f9722a3daafe3b4186f6b6457e090600090a35050565b600054610100900460ff166115c15760405162461bcd60e51b815260040161060590612648565b6115c9611a3c565b6107548282611a63565b600054610100900460ff166115fa5760405162461bcd60e51b815260040161060590612648565b611602611a3c565b61071e611a3c565b600054610100900460ff166116315760405162461bcd60e51b815260040161060590612648565b611639611a3c565b61071e611ab1565b600054610100900460ff166116685760405162461bcd60e51b815260040161060590612648565b611670611a3c565b61071e611ae4565b600054610100900460ff1661169f5760405162461bcd60e51b815260040161060590612648565b6116a7611a3c565b6116ca81604051806040016040528060018152602001603160f81b815250611b14565b61076281611b55565b60975460ff16156117195760405162461bcd60e51b815260206004820152601060248201526f14185d5cd8589b194e881c185d5cd95960821b6044820152606401610605565b6097805460ff191660011790557f62e78cea01bee320cd4e420270b5ea74000d11b0c9f74754ebdbfc544b05a2586114333390565b600061057161175b611269565b8360405161190160f01b6020820152602281018390526042810182905260009060620160405160208183030381529060405280519060200120905092915050565b60008060006117ad87878787611ba4565b915091506117ba81611c91565b5095945050505050565b6001600160a01b038116600090815261012f602052604090208054600181018255905b50919050565b60975460ff16156108475760405162461bcd60e51b815260206004820152601060248201526f14185d5cd8589b194e881c185d5cd95960821b6044820152606401610605565b610847838383611e92565b600061184d60028484186126ab565b6106e590848416612693565b6118638282611ec5565b6035546001600160e01b0310156118d55760405162461bcd60e51b815260206004820152603060248201527f4552433230566f7465733a20746f74616c20737570706c79207269736b73206f60448201526f766572666c6f77696e6720766f74657360801b6064820152608401610605565b611263610164611fb883611fc4565b6118ee8282612167565b6112636101646122c883611fc4565b816001600160a01b0316836001600160a01b03161415801561191f5750600081115b15610847576001600160a01b038316156119ae576001600160a01b038316600090815261016360205260408120819061195b906122c885611fc4565b91509150846001600160a01b03167fdec2bacdd2f05b59de34da9b523dff8be42e5e38e818c82fdb0bae774387a72483836040516119a3929190918252602082015260400190565b60405180910390a250505b6001600160a01b03821615610847576001600160a01b03821660009081526101636020526040812081906119e590611fb885611fc4565b91509150836001600160a01b03167fdec2bacdd2f05b59de34da9b523dff8be42e5e38e818c82fdb0bae774387a7248383604051611a2d929190918252602082015260400190565b60405180910390a25050505050565b600054610100900460ff1661071e5760405162461bcd60e51b815260040161060590612648565b600054610100900460ff16611a8a5760405162461bcd60e51b815260040161060590612648565b8151611a9d90603690602085019061233d565b50805161084790603790602084019061233d565b600054610100900460ff16611ad85760405162461bcd60e51b815260040161060590612648565b6097805460ff19169055565b600054610100900460ff16611b0b5760405162461bcd60e51b815260040161060590612648565b61071e33611548565b600054610100900460ff16611b3b5760405162461bcd60e51b815260040161060590612648565b81516020928301208151919092012060fb9190915560fc55565b600054610100900460ff16611b7c5760405162461bcd60e51b815260040161060590612648565b507f6e71edae12b1b97f4d1f60370fef10105fa2faae0126114a169c64845d6126c961013055565b6000807f7fffffffffffffffffffffffffffffff5d576e7357a4501ddfe92f46681b20a0831115611bdb5750600090506003611c88565b8460ff16601b14158015611bf357508460ff16601c14155b15611c045750600090506004611c88565b6040805160008082526020820180845289905260ff881692820192909252606081018690526080810185905260019060a0016020604051602081039080840390855afa158015611c58573d6000803e3d6000fd5b5050604051601f1901519150506001600160a01b038116611c8157600060019250925050611c88565b9150600090505b94509492505050565b6000816004811115611cb357634e487b7160e01b600052602160045260246000fd5b1415611cbc5750565b6001816004811115611cde57634e487b7160e01b600052602160045260246000fd5b1415611d2c5760405162461bcd60e51b815260206004820152601860248201527f45434453413a20696e76616c6964207369676e617475726500000000000000006044820152606401610605565b6002816004811115611d4e57634e487b7160e01b600052602160045260246000fd5b1415611d9c5760405162461bcd60e51b815260206004820152601f60248201527f45434453413a20696e76616c6964207369676e6174757265206c656e677468006044820152606401610605565b6003816004811115611dbe57634e487b7160e01b600052602160045260246000fd5b1415611e175760405162461bcd60e51b815260206004820152602260248201527f45434453413a20696e76616c6964207369676e6174757265202773272076616c604482015261756560f01b6064820152608401610605565b6004816004811115611e3957634e487b7160e01b600052602160045260246000fd5b14156107625760405162461bcd60e51b815260206004820152602260248201527f45434453413a20696e76616c6964207369676e6174757265202776272076616c604482015261756560f01b6064820152608401610605565b6001600160a01b0383811660009081526101626020526040808220548584168352912054610847929182169116836118fd565b6001600160a01b038216611f1b5760405162461bcd60e51b815260206004820152601f60248201527f45524332303a206d696e7420746f20746865207a65726f2061646472657373006044820152606401610605565b611f27600083836117ed565b8060356000828254611f399190612693565b90915550506001600160a01b03821660009081526033602052604081208054839290611f66908490612693565b90915550506040518181526001600160a01b038316906000907fddf252ad1be2c89b69c2b068fc378daa952ba7f163c4a11628f55a4df523b3ef9060200160405180910390a361075460008383611833565b60006106e58284612693565b82546000908190801561201d5785611fdd6001836127d8565b81548110611ffb57634e487b7160e01b600052603260045260246000fd5b60009182526020909120015464010000000090046001600160e01b0316612020565b60005b6001600160e01b0316925061203983858763ffffffff16565b9150600081118015612085575043866120536001846127d8565b8154811061207157634e487b7160e01b600052603260045260246000fd5b60009182526020909120015463ffffffff16145b156120f357612093826122d4565b8661209f6001846127d8565b815481106120bd57634e487b7160e01b600052603260045260246000fd5b9060005260206000200160000160046101000a8154816001600160e01b0302191690836001600160e01b0316021790555061215e565b856040518060400160405280612108436114df565b63ffffffff16815260200161211c856122d4565b6001600160e01b0390811690915282546001810184556000938452602093849020835194909301519091166401000000000263ffffffff909316929092179101555b50935093915050565b6001600160a01b0382166121c75760405162461bcd60e51b815260206004820152602160248201527f45524332303a206275726e2066726f6d20746865207a65726f206164647265736044820152607360f81b6064820152608401610605565b6121d3826000836117ed565b6001600160a01b038216600090815260336020526040902054818110156122475760405162461bcd60e51b815260206004820152602260248201527f45524332303a206275726e20616d6f756e7420657863656564732062616c616e604482015261636560f01b6064820152608401610605565b6001600160a01b03831660009081526033602052604081208383039055603580548492906122769084906127d8565b90915550506040518281526000906001600160a01b038516907fddf252ad1be2c89b69c2b068fc378daa952ba7f163c4a11628f55a4df523b3ef9060200160405180910390a361084783600084611833565b60006106e582846127d8565b60006001600160e01b038211156115445760405162461bcd60e51b815260206004820152602760248201527f53616665436173743a2076616c756520646f65736e27742066697420696e20326044820152663234206269747360c81b6064820152608401610605565b828054612349906127ef565b90600052602060002090601f01602090048101928261236b57600085556123b1565b82601f1061238457805160ff19168380011785556123b1565b828001600101855582156123b1579182015b828111156123b1578251825591602001919060010190612396565b506115449291505b8082111561154457600081556001016123b9565b80356001600160a01b03811681146123e457600080fd5b919050565b803560ff811681146123e457600080fd5b60006020828403121561240b578081fd5b6106e5826123cd565b60008060408385031215612426578081fd5b61242f836123cd565b915061243d602084016123cd565b90509250929050565b60008060006060848603121561245a578081fd5b612463846123cd565b9250612471602085016123cd565b9150604084013590509250925092565b600080600080600080600060e0888a03121561249b578283fd5b6124a4886123cd565b96506124b2602089016123cd565b955060408801359450606088013593506124ce608089016123e9565b925060a0880135915060c0880135905092959891949750929550565b600080604083850312156124fc578182fd5b612505836123cd565b946020939093013593505050565b60008060008060008060c0878903121561252b578182fd5b612534876123cd565b95506020870135945060408701359350612550606088016123e9565b92506080870135915060a087013590509295509295509295565b6000806040838503121561257c578182fd5b612585836123cd565b9150602083013563ffffffff8116811461259d578182fd5b809150509250929050565b6000602082840312156125b9578081fd5b5035919050565b6000602080835283518082850152825b818110156125ec578581018301518582016040015282016125d0565b818111156125fd5783604083870101525b50601f01601f1916929092016040019392505050565b6020808252818101527f4f776e61626c653a2063616c6c6572206973206e6f7420746865206f776e6572604082015260600190565b6020808252602b908201527f496e697469616c697a61626c653a20636f6e7472616374206973206e6f74206960408201526a6e697469616c697a696e6760a81b606082015260800190565b600082198211156126a6576126a6612824565b500190565b6000826126c657634e487b7160e01b81526012600452602481fd5b500490565b600181815b808511156127065781600019048211156126ec576126ec612824565b808516156126f957918102915b93841c93908002906126d0565b509250929050565b60006106e560ff84168360008261272757506001610571565b8161273457506000610571565b816001811461274a576002811461275457612770565b6001915050610571565b60ff84111561276557612765612824565b50506001821b610571565b5060208310610133831016604e8410600b8410161715612793575081810a610571565b61279d83836126cb565b80600019048211156127b1576127b1612824565b029392505050565b60008160001904831182151516156127d3576127d3612824565b500290565b6000828210156127ea576127ea612824565b500390565b600181811c9082168061280357607f821691505b602082108114156117e757634e487b7160e01b600052602260045260246000fd5b634e487b7160e01b600052601160045260246000fdfea2646970667358221220f2697c66cdc0619bd8139d69ed9b5074343225da4984f0d4c42f569a1053a4b264736f6c63430008040033",
  "linkReferences": {},
  "deployedLinkReferences": {}
}